:100000000C9434000C943E000C943E000C943E0082
:100010000C943E000C943E000C943E000C943E0068
:100020000C943E000C943E000C943E000C943E0058
:100030000C943E000C943E000C943E000C943E0048
:100040000C943E000C943E000C943E000C943E0038
:100050000C943E000C943E000C943E000C943E0028
:100060000C943E000C943E0011241FBECFEFD8E04C
:10007000DEBFCDBF0E9440000C9466000C940000CF
:10008000219A81E88093800089E08093810080E05C
:1000900090E09093890080938800EFE1FEE431972F
:1000A000F1F700C0000001968F3F910591F78FEFA7
:1000B00090E09093890080938800EFE1FEE431970F
:1000C000F1F700C000000197A1F7E1CFF894FFCF4E
:00000001FF
